:100000000C945D000C9485000C9485000C94850084
:100010000C9485000C9485000C9485000C941506B6
:100020000C9485000C9485000C9485000C9485003C
:100030000C9485000C9485000C9485000C9485002C
:100040000C946D060C9485000C9485000C9485002E
:100050000C9485000C9485000C9485000C9485000C
:100060000C9485000C94850000000008000201003B
:100070000003040700000000000000000102040863
:100080001020408001020408102001020408102002
:10009000040404040404040402020202020203032E
:1000A0000303030300000000250028002B000000CC
:1000B0000000240027002A00630611241FBECFEF92
:1000C000D8E0DEBFCDBF11E0A0E0B1E0EEE7F2E1A5
:1000D00002C005900D92AA31B107D9F721E0AAE13B
:1000E000B1E001C01D92A733B207E1F710E0CAEBFF
:1000F000D0E004C02297FE010E941208C83BD1073D
:10010000C9F70E94D6070C943D090C9400000F9388
:100110001F93CF93DF9300D000D0CDB7DEB78C0113
:10012000DC011B961C921E921A971D961C921E9221
:100130001C9713967C936E931297669FC001679FDE
:10014000900D900D11248D939C932B833C834983B8
:100150005A830E94E507F801958384838281938105
:100160000E94E507D80117969C938E9316976D9180
:100170007C91119712968D919C911397FC016E9F23
:10018000C0016F9F900D7E9F900D11240E94E50786
:10019000D80119969C938E9318974981642F5A81A0
:1001A000752F2B81A22F3C81B32F80E090E0F801C6
:1001B0002081318182179307A4F4FB014191BF0193
:1001C000F80124813581280F391FF90140834D91B1
:1001D000F80126813781280F391FF90140830196E4
:1001E000E6CF0F900F900F900F90DF91CF911F915E
:1001F0000F910895FC0120E030E06081718142811F
:100200005381649FC001659F900D749F900D1124D0
:100210002817390744F4A085B185A20FB31F1C929B
:100220002F5F3F4FEACF08950F931F93CF93DF9334
:10023000EC0100E010E088819981081719075CF44F
:10024000EC81FD81E00FF11F61E080810E94660773
:100250000F5F1F4FF0CF00E010E08A819B810817ED
:1002600019075CF4EE81FF81E00FF11F61E08081EE
:100270000E9466070F5F1F4FF0CFCE01DF91CF9135
:100280001F910F910C94FA00CF93FC0120E030E015
:10029000C1E06081718142815381649FC001659F8B
:1002A000900D749F900D11242817390744F4A085F0
:1002B000B185A20FB31FCC932F5F3F4FEACFCF91F1
:1002C00008951F93CF93DF9320E030E011E0FC010D
:1002D000408151812417350794F4649FD001659FB4
:1002E000B00D749FB00D1124EC01E885F985E20F83
:1002F000F31FEA0FFB1F10832F5F3F4FE8CFDF9103
:10030000CF911F910895CF93DF9320E030E0FC015F
:10031000408151812417350794F4649FD001659F73
:10032000B00D749FB00D1124EC01E885F985E20F42
:10033000F31FEA0FFB1F10822F5F3F4FE8CFDF91C3
:10034000CF910895CF93DC0120E030E0C1E08D91A2
:100350009C91119728173907BCF412964D915C9126
:100360001397249FC001259F900D349F900D112459
:100370001896ED91FC911997E60FF71FE80FF91FFA
:10038000C0832F5F3F4FE3CFCF910895DC0120E082
:1003900030E08D919C91119728173907BCF4129683
:1003A0004D915C911397249FC001259F900D349F20
:1003B000900D11241896ED91FC911997E60FF71FF7
:1003C000E80FF91F10822F5F3F4FE3CF08951F936F
:1003D000CF93DF93DC0120E030E011E012968D91A5
:1003E0009C9113972817390754F580E090E01296F6
:1003F0004D915C91139784179507F4F4469FE001A3
:10040000479FD00D569FD00D1124ED91FC9111976F
:100410008E9FA0018F9F500D9E9F500D1124189606
:10042000ED91FC911997E20FF31FEC0FFD1FE40F04
:10043000F51F10830196DBCF2F5F3F4FCFCFDF91AA
:10044000CF911F910895CF93DF93DC0120E030E03E
:1004500012968D919C9113972817390754F580E0D7
:1004600090E012964D915C91139784179507F4F4E0
:10047000469FE001479FD00D569FD00D1124ED916E
:10048000FC9111978E9FA0018F9F500D9E9F500D44
:1004900011241896ED91FC911997E20FF31FEC0FC0
:1004A000FD1FE40FF51F10820196DBCF2F5F3F4F3A
:1004B000CFCFDF91CF910895CF93DF9320E030E04D
:1004C000A1E0FC0142815381241735075CF4EC0163
:1004D000E885F985E60FF71FA0832F5F3F4F605F28
:1004E0007F4FEFCFDF91CF91089520E030E0FC0106
:1004F00042815381241735076CF4DC011896ED9185
:10050000FC911997E60FF71F10822F5F3F4F605F36
:100510007F4FEDCF0895CF93DF93EC019B0177FFE1
:1005200002C02D5F3F4F359527953595279594E06F
:10053000220F331F9A95E1F7CB0164E070E00E942F
:10054000E807280F391F40E050E061E08A819B8175
:100550004817590754F4E885F985E20FF31F6083C3
:100560004F5F5F4F2C5F3F4FF1CFDF91CF910895E9
:10057000CF93DF93EC019B0177FF02C02D5F3F4FCC
:10058000359527953595279554E0220F331F5A95B9
:10059000E1F7CB0164E070E00E94E807280F391F03
:1005A00040E050E08A819B814817590754F4E88560
:1005B000F985E20FF31F10824F5F5F4F2C5F3F4FB3
:1005C000F1CFDF91CF910895CF93DF93660F771F1F
:1005D000660F771F20E030E0A1E0FC0142815381EB
:1005E000241735075CF4EC01E885F985E20FF31F69
:1005F000E60FF71FA0832F5F3F4FEFCFDF91CF9123
:100600000895660F771F660F771F20E030E0FC012A
:1006100042815381241735076CF4DC011896ED9163
:10062000FC911997E20FF31FE60FF71F10822F5F5F
:100630003F4FEDCF0895F89482E08093B00097E0AB
:100640009093B1001092B20090E49093B300809325
:10065000700078940895CF92DF92EF92FF920F93FB
:100660001F93CF93DF938C017B016B01A4E0CC0C33
:10067000DD1CAA95E1F7C0E0D0E0F801808191810E
:10068000C817D907DCF4D8011896ED91FC91199799
:10069000EC0DFD1DEC0FFD1F208114968D919C919A
:1006A0001597FC01EC0FFD1F213011F461E001C032
:1006B00060E080810E949F072196DFCFC0E0D0E0FC
:1006C000F80182819381C817D9079CF4D801169646
:1006D0008D919C911797FC01EC0FFD1FCE15DF0546
:1006E00011F461E001C060E080810E949F072196C3
:1006F000E7CFDF91CF911F910F91FF90EF90DF90A7
:10070000CF9008958CE191E00E9414018CE191E07A
:100710000C941B03EF92FF920F931F93CF93DF93E1
:1007200080912801909129018F719927892B51F48B
:100730008091260190912701892B21F48CE191E091
:100740000E94FA0080912801909129018032910540
:10075000A4F460E270E00E94E80721E030E04091FC
:100760002601509127014837510514F420E030E06C
:10077000880F991F820F931F18C080349105F4F4DD
:100780008F71992721E030E0409126015091270197
:100790004837510514F420E030E091958195910996
:1007A000880F991FCF96821B930BE0912401F09143
:1007B0002501E80FF91F81E0808330C2883491055C
:1007C000C4F5BC01637077278CE191E00E94610160
:1007D000809128019091290100E210E0B8010E9467
:1007E000E8070196C4E0D0E0BE010E94E807BC0122
:1007F0008CE191E00E948301809128019091290170
:10080000B8010E94E8070296BE010E94E807BC01F9
:100810008CE191E00E94830180912801909129014F
:10082000B8010E94E8070396BE010E94E807BC01D8
:1008300046C0803591050CF04CC083709927C3E009
:10084000D0E0BE01681B790B8CE191E00E94610150
:10085000809128019091290140E2E42EF12CB7010A
:100860000E94E807019604E010E0B8010E94E80742
:10087000BE01681B790B8CE191E00E94830180919D
:10088000280190912901B7010E94E8070296B8015A
:100890000E94E807BE01681B790B8CE191E00E9481
:1008A00083018091280190912901B7010E94E807F6
:1008B0000396B8010E94E807BE01681B790B8CE122
:1008C00091E0DF91CF911F910F91FF90EF900C94E9
:1008D000830188359105C4F5BC01637077278CE1ED
:1008E00091E00E94A201809128019091290100E2EB
:1008F00010E0B8010E94E8070196C4E0D0E0BE0114
:100900000E94E807BC018CE191E00E94C601809141
:10091000280190912901B8010E94E8070296BE01C2
:100920000E94E807BC018CE191E00E94C601809121
:10093000280190912901B8010E94E8070396BE01A1
:100940000E94E807BC0146C0803691050CF04CC0FF
:1009500083709927C3E0D0E0BE01681B790B8CE15E
:1009600091E00E94A201809128019091290130E23A
:10097000E32EF12CB7010E94E807019604E010E095
:10098000B8010E94E807BE01681B790B8CE191E079
:100990000E94C6018091280190912901B7010E940F
:1009A000E8070296B8010E94E807BE01681B790BB0
:1009B0008CE191E00E94C60180912801909129016B
:1009C000B7010E94E8070396B8010E94E807BE013C
:1009D000681B790B8CE191E0DF91CF911F910F9112
:1009E000FF90EF900C94C60188369105C4F5BC01C8
:1009F000637077278CE191E00E94E70180912801E4
:100A00009091290100E210E0B8010E94E8070196E8
:100A1000C4E0D0E0BE010E94E807BC018CE191E097
:100A20000E9423028091280190912901B8010E941F
:100A3000E8070296BE010E94E807BC018CE191E044
:100A40000E9423028091280190912901B8010E94FF
:100A5000E8070396BE010E94E807BC0146C0803744
:100A600091050CF04CC083709927C3E0D0E0BE0123
:100A7000681B790B8CE191E00E94E70180912801CD
:100A80009091290120E2E22EF12CB7010E94E807A3
:100A9000019604E010E0B8010E94E807BE01681B5F
:100AA000790B8CE191E00E942302809128019091C2
:100AB0002901B7010E94E8070296B8010E94E807E1
:100AC000BE01681B790B8CE191E00E9423028091AA
:100AD000280190912901B7010E94E8070396B80107
:100AE0000E94E807BE01681B790B8CE191E0DF9161
:100AF000CF911F910F91FF90EF900C9423028038BB
:100B0000910524F5BC016F7077278CE191E00E947C
:100B10005C02C1E0D0E000E2E02EF12C00E110E048
:100B20008091280190912901B7010E94E8078C0F5C
:100B30009D1FB8010E94E807BC018CE191E00E9472
:100B400075022196C031D10559F768C080399105E9
:100B500024F5BC016F7077278CE191E00E948B0235
:100B6000C1E0D0E010E2E12EF12C00E110E0809134
:100B7000280190912901B7010E94E8078C0F9D1F61
:100B8000B8010E94E807BC018CE191E00E94B80224
:100B90002196C031D10559F741C0803A910524F51D
:100BA000BC016F7077278CE191E00E94E402C1E004
:100BB000D0E0B0E2EB2EF12C00E110E080912801B2
:100BC00090912901B7010E94E8078C0F9D1FB80181
:100BD0000E94E807BC018CE191E00E94010321968C
:100BE000C031D10559F71AC08CE191E00E9444014F
:100BF00064EF71E080E090E00E94DA068CE191E021
:100C00000E94FA0064EF71E080E090E0DF91CF9104
:100C10001F910F91FF90EF900C94DA06DF91CF9126
:100C20001F910F91FF90EF9008951F920F920FB6B2
:100C30000F9211242F933F934F935F936F937F9362
:100C40008F939F93AF93BF93EF93FF938091260170
:100C500090912701019660EF70E00E94E807909361
:100C6000270180932601892B49F4809128019091D6
:100C700029010196909329018093280180911A01FE
:100C800090911B01019660911E0170911F010E94BD
:100C9000E80790931B0180931A01BC018CE191E05D
:100CA0000E942B03FF91EF91BF91AF919F918F9184
:100CB0007F916F915F914F913F912F910F900FBE58
:100CC0000F901F90189526E031E04AE051E064E073
:100CD00070E08CE191E00C9487001F920F920FB6A8
:100CE0000F9211242F933F938F939F93AF93BF93B2
:100CF00080912B0190912C01A0912D01B0912E019A
:100D000030912A0123E0230F2D3720F40196A11DF5
:100D1000B11D05C026E8230F0296A11DB11D209329
:100D20002A0180932B0190932C01A0932D01B09365
:100D30002E0180912F0190913001A0913101B0914D
:100D400032010196A11DB11D80932F0190933001B6
:100D5000A0933101B0933201BF91AF919F918F91D8
:100D60003F912F910F900FBE0F901F9018953FB796
:100D7000F89480912F0190913001A0913101B091B0
:100D8000320126B5A89B05C02F3F19F00196A11D81
:100D9000B11D3FBF6627782F892F9A2F620F711DD3
:100DA000811D911D42E0660F771F881F991F4A958C
:100DB000D1F70895CF92DF92EF92FF92CF93DF9316
:100DC0006B017C010E94B706EB01C114D104E10460
:100DD000F10489F00E94E7070E94B7066C1B7D0BA7
:100DE000683E734090F381E0C81AD108E108F10829
:100DF000C851DC4FEACFDF91CF91FF90EF90DF90A9
:100E0000CF900895789484B5826084BD84B5816064
:100E100084BD85B5826085BD85B5816085BDEEE602
:100E2000F0E0808181608083E1E8F0E010828081E1
:100E300082608083808181608083E0E8F0E080814F
:100E400081608083E1EBF0E0808184608083E0EB6F
:100E5000F0E0808181608083EAE7F0E08081846057
:100E600080838081826080838081816080838081B3
:100E7000806880831092C1000895833081F028F447
:100E8000813099F08230A1F008958730A9F0883040
:100E9000B9F08430D1F4809180008F7D03C08091BF
:100EA00080008F7780938000089584B58F7702C08B
:100EB00084B58F7D84BD08958091B0008F7703C085
:100EC0008091B0008F7D8093B0000895CF93DF9321
:100ED00090E0FC01E458FF4F2491FC01E057FF4FE4
:100EE0008491882349F190E0880F991FFC01E25515
:100EF000FF4FA591B4918C559F4FFC01C591D491A2
:100F00009FB7611108C0F8948C91209582238C932F
:100F1000888182230AC0623051F4F8948C91322F78
:100F2000309583238C938881822B888304C0F89426
:100F30008C91822B8C939FBFDF91CF9108950F935B
:100F40001F93CF93DF931F92CDB7DEB7282F30E0EA
:100F5000F901E859FF4F8491F901E458FF4F1491CA
:100F6000F901E057FF4F04910023C9F0882321F0D5
:100F700069830E943D076981E02FF0E0EE0FFF1FBB
:100F8000EC55FF4FA591B4919FB7F8948C916111E6
:100F900003C01095812301C0812B8C939FBF0F90BC
:100FA000DF91CF911F910F91089508950E9402073C
:100FB0000E94D5070E948203C0E0D0E00E948A030D
:100FC0002097E1F30E940000F9CF0C9416080895D1
:100FD00097FB072E16F4009407D077FD09D00E94E6
:100FE000FC0707FC05D03EF4909581959F4F08952E
:100FF000709561957F4F0895AA1BBB1B51E107C0F7
:10100000AA1FBB1FA617B70710F0A61BB70B881F98
:10101000991F5A95A9F780959095BC01CD01089527
:10102000EE0FFF1F0590F491E02D0994CF93DF930D
:101030008230910510F482E090E0E0913501F0916A
:10104000360120E030E0A0E0B0E0309739F1408197
:10105000518148175907B8F04817590771F4828130
:101060009381109729F013969C938E9312972CC01E
:10107000909336018093350127C02115310531F059
:101080004217530718F0A901DB0101C0EF019A01D3
:10109000BD01DF010280F381E02DD7CF211531059D
:1010A000F9F0281B390B2430310580F48A819B81AB
:1010B0006115710521F0FB019383828304C0909335
:1010C000360180933501FE01329644C0FE01E20FE5
:1010D000F31F8193919322503109398328833AC0B9
:1010E0002091330130913401232B41F420910201EE
:1010F000309103013093340120933301209100019A
:10110000309101012115310541F42DB73EB74091D1
:10111000040150910501241B350BE0913301F0913E
:101120003401E217F307A0F42E1B3F0B28173907F1
:1011300078F0AC014E5F5F4F2417350748F04E0F33
:101140005F1F50933401409333018193919302C008
:10115000E0E0F0E0CF01DF91CF910895CF93DF93EE
:10116000009709F487C0FC01329713821282C09164
:101170003501D0913601209781F420813181280FEB
:10118000391F80913301909134018217930779F5CB
:10119000F0933401E09333016DC0DE0120E030E0D4
:1011A000AE17BF0750F412964D915C9113979D01B5
:1011B0004115510509F1DA01F3CFB383A2834081D0
:1011C0005181840F951F8A179B0771F48D919C9113
:1011D0001197840F951F02969183808312968D91AB
:1011E0009C911397938382832115310529F4F09301
:1011F0003601E09335013EC0D9011396FC93EE937E
:1012000012974D915D91A40FB51FEA17FB0779F472
:1012100080819181840F951F0296D90111969C932C
:101220008E938281938113969C938E931297E0E024
:10123000F0E08A819B81009719F0FE01EC01F9CF63
:10124000CE01029628813981820F931F20913301AC
:10125000309134012817390769F4309729F4109236
:1012600036011092350102C013821282D0933401EC
:0E127000C0933301DF91CF910895F894FFCF22
:10127E000000370180001011121300010203040553
:0A128E00060708090A0B0C0D0E0FED
:00000001FF
