:100000000C945C000C9479000C9479000C947900A9
:100010000C9479000C9479000C9479000C941B04D6
:100020000C9479000C9479000C9479000C9479006C
:100030000C9479000C9479000C9479000C9479005C
:100040000C9464040C9479000C9479000C9479005D
:100050000C9479000C9479000C9479000C9479003C
:100060000C9479000C947900000000080002010053
:100070000003040700000000000000000102040863
:100080001020408001020408102001020408102002
:10009000040404040404040402020202020203032E
:1000A0000303030300000000250028002B000000CC
:1000B0000000240027002A0011241FBECFEFD8E043
:1000C000DEBFCDBF11E0A0E0B1E0EEE0FCE002C099
:1000D00005900D92A431B107D9F721E0A4E1B1E078
:1000E00001C01D92A336B207E1F70E94CD050C9422
:1000F00005060C940000EAE1F1E0119281E0EA3596
:10010000F807D9F70895CF93DF93C4E0D1E061E019
:1001100089910E945D0581E0C431D807C1F7C0E034
:10012000D1E061E089910E945D0581E0C430D8078B
:10013000C1F7DF91CF910C947B00EAE1F1E081E01F
:10014000819391E0EA35F907D9F7089524E0880F03
:10015000991F2A95E1F720E030E0865E9E4F41E04E
:10016000FC01E20FF31F40832F5F3F4F2031310529
:10017000B9F7089534E0880F991F3A95E1F720E028
:1001800030E0865E9E4FFC01E20FF31F10822F5F6E
:100190003F4F20313105B9F7089520E030E0865E09
:1001A0009E4F41E0FC01E20FF31F40832C5F3F4F65
:1001B00020343105B9F7089520E030E0865E9E4F87
:1001C000FC01E20FF31F10822C5F3F4F20343105FA
:1001D000B9F70895880F991F880F991F40E050E0E4
:1001E000865E9E4FA1E0BC01640F751F20E030E0E9
:1001F000FB01E20FF31FA083205F3F4F2034310546
:10020000B9F74F5F5F4F4430510569F70895880F84
:10021000991F880F991F40E050E0865E9E4FBC01F9
:10022000640F751F20E030E0FB01E20FF31F108226
:10023000205F3F4F20343105B9F74F5F5F4F4430A7
:10024000510569F70895FC01E65EFE4F81E0808369
:10025000808B80A380AB0895FC01E65EFE4F108288
:10026000108A10A210AA0895FC0197FD3396F59507
:10027000E795F595E79574E0EE0FFF1F7A95E1F7A6
:1002800064E070E00E94DD05E80FF91FE65EFE4FB6
:1002900081E080838483808784870895FC0197FDB3
:1002A0003396F595E795F595E795B4E0EE0FFF1FCA
:1002B000BA95E1F764E070E00E94DD05E80FF91FF0
:1002C000E65EFE4F10821482108614860895FC01AB
:1002D000EE0FFF1FEE0FFF1FE65EFE4F81E08083F3
:1002E0008183828383830895FC01EE0FFF1FEE0F4D
:1002F000FF1FE65EFE4F1082118212821382089564
:10030000F89482E08093B00097E09093B10010924F
:10031000B20090E49093B3008093700078940895B5
:10032000CF92DF92EF92FF920F931F93CF93DF93C1
:100330006C017C0124E0EE0CFF1C2A95E1F704E03F
:1003400011E0C0E0D0E0C701865E9E4F7C01F7015E
:10035000EC0FFD1F8081813011F461E001C060E08D
:10036000F80180810E94960521960F5F1F4FC031D2
:10037000D10569F7C0E0D0E0FE01E050FF4FCC1599
:10038000DD0511F461E001C060E080810E94960506
:100390002196C430D10581F7DF91CF911F910F9144
:1003A000FF90EF90DF90CF9008950E9483000C940F
:1003B0008001EF92FF920F931F93CF93DF93809171
:1003C0001601909117018F719927892B41F4809123
:1003D000180190911901892B11F40E947B008091E2
:1003E00016019091170180329105BCF460E270E033
:1003F0000E94DD0521E030E0409118015091190183
:100400004837510514F420E030E0FC01EE0FFF1FE7
:10041000E20FF31FE65EFE4F1AC080349105D4F45C
:100420008F71992721E030E0409118015091190116
:100430004837510514F420E030E0EE27FF27E81B91
:10044000F90BEE0FFF1FE21BF30BE75AFE4F81E0A3
:100450008083EAC18834910574F5837099270E94DE
:10046000A600809116019091170100E210E0B801FA
:100470000E94DD050196C4E0D0E0BE010E94DD05CA
:100480000E94BA008091160190911701B8010E9454
:10049000DD050296BE010E94DD050E94BA00809132
:1004A000160190911701B8010E94DD050396BE0167
:1004B0000E94DD0544C0803591050CF048C0837072
:1004C0009927C3E0D0E09E01281B390BC9010E9487
:1004D000A6008091160190911701E0E2EE2EF12C1A
:1004E000B7010E94DD05019604E010E0B8010E940A
:1004F000DD059E01281B390BC9010E94BA008091BD
:10050000160190911701B7010E94DD050296B8010E
:100510000E94DD059E01281B390BC9010E94BA000B
:100520008091160190911701B7010E94DD05039695
:10053000B8010E94DD059E01281B390BC901DF911E
:10054000CF911F910F91FF90EF900C94BA008835D6
:10055000910574F5837099270E94CD008091160152
:100560009091170100E210E0B8010E94DD050196AC
:10057000C4E0D0E0BE010E94DD050E94DC00809155
:10058000160190911701B8010E94DD050296BE0187
:100590000E94DD050E94DC008091160190911701F8
:1005A000B8010E94DD050396BE010E94DD0544C02E
:1005B000803691050CF048C083709927C3E0D0E0E5
:1005C0009E01281B390BC9010E94CD0080911601A4
:1005D0009091170170E2E72EF12CB7010E94DD0522
:1005E000019604E010E0B8010E94DD059E01281B81
:1005F000390BC9010E94DC0080911601909117010E
:10060000B7010E94DD050296B8010E94DD059E013A
:10061000281B390BC9010E94DC00809116019091C2
:100620001701B7010E94DD050396B8010E94DD05A0
:100630009E01281B390BC901DF91CF911F910F91AA
:10064000FF90EF900C94DC008836910574F5837070
:1006500099270E94EA00809116019091170100E20B
:1006600010E0B8010E94DD050196C4E0D0E0BE01B3
:100670000E94DD050E9407018091160190911701EB
:10068000B8010E94DD050296BE010E94DD050E94B0
:1006900007018091160190911701B8010E94DD05B4
:1006A0000396BE010E94DD0544C0803791050CF021
:1006B00048C083709927C3E0D0E09E01281B390B06
:1006C000C9010E94EA00809116019091170160E231
:1006D000E62EF12CB7010E94DD05019604E010E042
:1006E000B8010E94DD059E01281B390BC9010E943B
:1006F00007018091160190911701B7010E94DD0555
:100700000296B8010E94DD059E01281B390BC90124
:100710000E9407018091160190911701B7010E9474
:10072000DD050396B8010E94DD059E01281B390BEB
:10073000C901DF91CF911F910F91FF90EF900C9421
:10074000070180389105F4F48F7099270E942301E6
:10075000C1E0D0E050E2E52EF12C00E110E0809104
:10076000160190911701B7010E94DD058C0F9D1FA6
:10077000B8010E94DD050E942C012196C031D105EF
:1007800071F752C080399105F4F48F7099270E9457
:100790003401C1E0D0E040E2E42EF12C00E110E0B1
:1007A0008091160190911701B7010E94DD058C0F11
:1007B0009D1FB8010E94DD050E944E012196C031A7
:1007C000D10571F731C0803A9105F4F48F70992703
:1007D0000E946701C1E0D0E030E2E32EF12C00E19D
:1007E00010E08091160190911701B7010E94DD057C
:1007F0008C0F9D1FB8010E94DD050E947401219697
:10080000C031D10571F710C00E949D0064EF71E006
:1008100080E090E00E94D104DF91CF911F910F9171
:10082000FF90EF900C947B00DF91CF911F910F917F
:10083000FF90EF9008951F920F920FB60F92112420
:100840002F933F934F935F936F937F938F939F93D8
:10085000AF93BF93EF93FF9380911801909119018B
:10086000019660EF70E00E94DD059093190180937E
:100870001801892B49F48091160190911701019676
:1008800090931701809316018091140190911501A6
:10089000019664E070E00E94DD059093150180935D
:1008A00014010E949001FF91EF91BF91AF919F9130
:1008B0008F917F916F915F914F913F912F910F9009
:1008C0000FBE0F901F9018951F920F920FB60F92A8
:1008D00011242F933F938F939F93AF93BF93809156
:1008E0005B0190915C01A0915D01B0915E0130913E
:1008F0005A0123E0230F2D3720F40196A11DB11DCD
:1009000005C026E8230F0296A11DB11D20935A01B0
:1009100080935B0190935C01A0935D01B0935E01B5
:1009200080915F0190916001A0916101B09162019D
:100930000196A11DB11D80935F0190936001A0936A
:100940006101B0936201BF91AF919F918F913F91EF
:100950002F910F900FBE0F901F9018953FB7F894EE
:1009600080915F0190916001A0916101B09162015D
:1009700026B5A89B05C02F3F19F00196A11DB11DFA
:100980003FBF6627782F892F9A2F620F711D811D17
:10099000911D42E0660F771F881F991F4A95D1F776
:1009A0000895CF92DF92EF92FF92CF93DF936B0186
:1009B0007C010E94AE04EB01C114D104E104F104F6
:1009C00089F00E94DC050E94AE046C1B7D0B683E22
:1009D000734090F381E0C81AD108E108F108C851CA
:1009E000DC4FEACFDF91CF91FF90EF90DF90CF9077
:1009F0000895789484B5826084BD84B5816084BD97
:100A000085B5826085BD85B5816085BDEEE6F0E087
:100A1000808181608083E1E8F0E0108280818260E3
:100A20008083808181608083E0E8F0E08081816064
:100A30008083E1EBF0E0808184608083E0EBF0E094
:100A4000808181608083EAE7F0E080818460808338
:100A500080818260808380818160808380818068E2
:100A600080831092C1000895833081F028F4813092
:100A700099F08230A1F008958730A9F08830B9F05C
:100A80008430D1F4809180008F7D03C080918000FC
:100A90008F7780938000089584B58F7702C084B5E6
:100AA0008F7D84BD08958091B0008F7703C08091C1
:100AB000B0008F7D8093B0000895CF93DF9390E0D6
:100AC000FC01E458FF4F2491FC01E057FF4F849153
:100AD000882349F190E0880F991FFC01E255FF4FF0
:100AE000A591B4918C559F4FFC01C591D4919FB7AE
:100AF000611108C0F8948C91209582238C93888191
:100B000082230AC0623051F4F8948C91322F3095D0
:100B100083238C938881822B888304C0F8948C91E2
:100B2000822B8C939FBFDF91CF9108950F931F93DA
:100B3000CF93DF931F92CDB7DEB7282F30E0F901B6
:100B4000E859FF4F8491F901E458FF4F1491F901DE
:100B5000E057FF4F04910023C9F0882321F06983F7
:100B60000E9434056981E02FF0E0EE0FFF1FEC5585
:100B7000FF4FA591B4919FB7F8948C91611103C078
:100B80001095812301C0812B8C939FBF0F90DF9123
:100B9000CF911F910F91089508950E94F9040E942A
:100BA000CC050E94D501C0E0D0E00E94D901209779
:100BB000E1F30E940000F9CF089597FB072E16F489
:100BC000009407D077FD09D00E94F10507FC05D0FD
:100BD0003EF4909581959F4F0895709561957F4F54
:100BE0000895AA1BBB1B51E107C0AA1FBB1FA61774
:100BF000B70710F0A61BB70B881F991F5A95A9F7C6
:0E0C000080959095BC01CD010895F894FFCF2A
:100C0E0010111213000102030405060708090A0B4E
:040C1E000C0D0E0F9C
:00000001FF
